:0400000013EF09F001
:101000000000000E246E22BE0AEF08F008EF08F080
:1010100010EF08F0216C221ED8B0222A010E246E97
:1010200020BE17EF08F015EF08F01DEF08F01F6C59
:10103000201ED8B0202A010E241A000E266E000EA3
:10104000256E21502210D8B428EF08F02AEF08F0BE
:1010500052EF08F0010E236E32EF08F0D8902136DF
:101060002236232A22AE37EF08F039EF08F02EEFB0
:1010700008F0D8902536263621501F5C2250205883
:10108000D8A045EF08F047EF08F04CEF08F02150EA
:101090001F5E2250205A2580D89022322132232EE2
:1010A00039EF08F02450D8B458EF08F05AEF08F0A0
:1010B0005EEF08F0256C261ED8B0262A25C01FF04A
:1010C00026C020F01200000E246E20BE6CEF08F047
:1010D0006AEF08F072EF08F01F6C201ED8B0202ACB
:1010E000010E246E22BE79EF08F077EF08F07DEF55
:1010F00008F0216C221ED8B0222A21502210D8B428
:1011000084EF08F086EF08F0AAEF08F0010E236ED6
:101110008EEF08F0D89021362236232A22AE93EFA4
:1011200008F095EF08F08AEF08F021501F5C22507C
:101130002058D8A09EEF08F0A0EF08F0A4EF08F028
:1011400021501F5E2250205AD89022322132232E65
:1011500095EF08F02450D8B4B0EF08F0B2EF08F0E3
:10116000B6EF08F01F6C201ED8B0202A1FC01FF059
:1011700020C020F012003BEC09F0000E296E29C0BF
:101180001FF0206A000E226E0A0E216E01EC08F09C
:101190001FC027F020C028F0273AF00E271629C0DC
:1011A0001FF0206A000E226E0A0E216E63EC08F01A
:1011B0001F5027102A6E2AC01FF0020EF7EC08F00D
:1011C000030E286E080E276E770EE82EFED7272E08
:1011D000FCD7282EFAD70000292A620E2964F3EFE3
:1011E00008F0F5EF08F0BFEF08F000EF00F0226E16
:1011F0001F50D8A4FEEF08F000EF09F002EF09F04D
:1012000012EF09F02250020DF350010FD96EDA6A85
:10121000DECF20F0DDCF21F020C0D9FF21C0DAFFE2
:101220001FC0DFFF1200960EF66E120EF76E000E54
:10123000F86E00EE01F010EE1EF00900F5CFEEFFA3
:10124000E550E150FAE12A6A000EF86E0001BBEFAA
:1012500008F0226E2250020DF350150FD96EDA6A93
:10126000DECF20F0DDCF21F020C0D9FF21C0DAFF92
:101270001FC0DFFF1200000E1F6E020E29EC09F0E6
:10128000000E1F6E030E29EC09F0000E1F6E020EF9
:10129000F7EC08F01200890F8A0F8B0F8C0F8D0F5F
:1012A000800F810F820F830F840F920F930F940F83
:0412B000950F960FF1
:00000001FF
